:020000040800F2
:100000004808002001010008C1020008850200081C
:10001000BD020008490100080D130008000000009F
:10002000000000000000000000000000610900085E
:100030004D0100080000000049080008550A0008AA
:100040001B0100081B0100081B0100081B01000820
:100050001B0100081B0100081B0100081B01000810
:100060001B0100081B0100081B0100081B01000800
:100070001B0100081B0100081B0100081B010008F0
:100080001B0100081B0100081B0100081B010008E0
:100090001B0100081B0100081B0100081B010008D0
:1000A0001B0100081B0100081B0100081B010008C0
:1000B000B90A00081B0100081B0100081B01000809
:1000C0001B0100081B0100081B0100081B010008A0
:1000D0001B0100084D0E0008350F00081D10000818
:1000E0001B0100081B0100081B010008DFF80CD0F1
:1000F00000F018F800480047811300084808002065
:100100000648804706480047FEE7FEE7FEE7FEE7B1
:10011000FEE7FEE7FEE7FEE7FEE7FEE7590A000816
:10012000ED000008064C074D06E0E06840F00103D2
:1001300094E8070098471034AC42F6D3FFF7DAFF93
:10014000CC520008EC52000800BFFEE770472DE9D2
:10015000F04102460025002600200023002400274D
:1001600091F803C00CF00F0591F803C00CF0100CCF
:10017000BCF1000F03D091F802C04CEA050591F8DC
:1001800000C0BCF1000F31D0146800202BE04FF00C
:10019000010C0CFA00F3B1F800C00CEA03069E4211
:1001A00020D183004FF00F0C0CFA03F7BC4305FA83
:1001B00003FC4CEA040491F803C0BCF1280F06D1FB
:1001C0004FF0010C0CFA00FCC2F814C00AE091F8E0
:1001D00003C0BCF1480F05D14FF0010C0CFA00FC34
:1001E000C2F810C0401C0828D1D31460B1F800C078
:1001F000BCF1FF0F34DD546800202EE000F1080C44
:100200004FF0010808FA0CF3B1F800C00CEA03063D
:100210009E4221D183004FF00F0C0CFA03F7BC4330
:1002200005FA03FC4CEA040491F803C0BCF1280F62
:1002300005D100F1080C08FA0CF8C2F8148091F806
:1002400003C0BCF1480F07D100F1080C4FF00108C2
:1002500008FA0CF8C2F81080401C0828CED354606D
:10026000BDE8F0810246002093680B400BB10120ED
:1002700000E000207047416170470AB1016100E071
:100280004161704700BFFEE708B50121102000F072
:10029000EDFA10208DF803004002ADF800000320B5
:1002A0008DF8020069460448FFF751FF4FF40051F2
:1002B0000148FFF7E0FF08BD0010014000BFFEE766
:1002C0007047000070B5002100230F22C47804B3EA
:1002D000154C246804F4E064C4F5E064210AC1F11B
:1002E0000403CA40447804FA03F18478144021439B
:1002F00009010E4C0678A155047804F01F0501246D
:10030000AC4005786D11AD0005F1E025C5F8004160
:1003100009E0047804F01F050124AC40044D067880
:10032000761145F8264070BD0CED00E000E400E0D9
:1003300080E100E002490143024A11607047000079
:100340000000FA050CED00E000200CE0002106E0C2
:100350000022064B03EBC0135A544A1CD1B2802929
:10036000F6DB421CD0B20828F0DB704744000020C6
:100370002DE9F04304460D4616461F467F2C01DD4D
:10038000BDE8F0833F2D00DDFAE7A119802902DDE9
:10039000C4F18001CEB2E919402902DDC5F1400166
:1003A000CFB2284630E0234629E04FEAE07C00EB5C
:1003B0005C7C4FEAEC0CDFF85C8008EBCC1C1CF892
:1003C00003C002464FEAE07800EB58784FEAE808AD
:1003D000A0EBC8094FF0010808FA09F82CEA080C4C
:1003E00001464FEAE07800EB58784FEAE808DFF87A
:1003F000249009EBC81808F803C0591CCBB2A11906
:100400009942D2DC411CC8B2E9198142CBDC00BF61
:10041000B6E700004400002038B5002406E00025BF
:1004200000E06D1CB5F57A7FFBD3641CB4F57A7FD0
:10043000F5D30121082000F019FA14208DF80300EB
:1004400003208DF802004FF48070ADF8000069467B
:100450000848FFF77CFE4FF40070ADF800006946D5
:100460000448FFF774FE012000F04AF9012000F073
:1004700053F938BD000C014070B50546002411E069
:1004800080212141294009B1012100E000210846D5
:1004900000F042F9012000F033F9002000F030F9BB
:1004A000601CC4B2082CEBDB012000F029F900200D
:1004B00000F026F970BD10B5012000F02DF90120E3
:1004C00000F01EF9002000F027F9002000F018F9D4
:1004D00010BD10B5002000F01FF9012000F010F948
:1004E000012000F019F910BD10B5FFF795FFAE20FF
:1004F00000F01EF9D52000F01BF9802000F018F95B
:10050000A82000F015F93F2000F012F9D32000F0E8
:100510000FF9002000F00CF9402000F009F9A020AC
:1005200000F006F9C02000F003F9DA2000F000F92D
:10053000122000F0FDF8812000F0FAF8CF2000F042
:10054000F7F8D92000F0F4F8F12000F0F1F8DB2002
:1005500000F0EEF8302000F0EBF8A42000F0E8F80E
:10056000A62000F0E5F88D2000F0E2F8142000F05D
:10057000DFF8AF2000F0DCF8FFF7E6FE00F0ACF8A3
:1005800010BD70B505460C46A01CC4B245F0B000C5
:1005900000F0CEF8102141EA141000F0C9F804F080
:1005A0000F0000F0C5F870BD2DE9F04707460C4676
:1005B00090469946DDF820A07F2F01DDBDE8F08749
:1005C0003F2C00DDFAE74B46424621463846FFF70E
:1005D000CFFE002570E0002669E0B8197F2800DD15
:1005E00067E0E11704EB517105EBE101072900DD3C
:1005F000E4E72046E21704EB527205EBE202354BCA
:1006000003EBC212BB19D25C2146E31704EB537310
:10061000DB10A4EBC30305FB086C1AF80CC00CFA42
:1006200003FC42EA0C02E31704EB537305EBE3030C
:10063000DFF8A0C00CEBC31307EB060C03F80C208B
:10064000E11704EB517105EBE101491C072900DDBD
:100650002BE02046E21704EB527205EBE202521C3B
:100660001C4B03EBC212BB19D25C2146E31704EB0F
:100670005373DB10A4EBC303C3F1080305FB086C41
:100680001AF80CC04CFA03FC42EA0C02E31704EB24
:10069000537305EBE3035B1CDFF838C00CEBC313AB
:1006A00007EB060C03F80C2000BF701CC6B24645D1
:1006B00093DB00BF681CC5B2A9F10100C11700EBB4
:1006C0005171012202EBE101A94284DC00F004F83F
:1006D00000BF73E74400002010B500240BE00021A8
:1006E0002046FFF74EFF054901EBC410802100F0C2
:1006F0002FF8601CC4B2082CF1DB10BD44000020B0
:1007000010B5044622464FF480710248FFF7B5FD4C
:1007100010BD0000000C014010B5044622464FF405
:1007200000710248FFF7A9FD10BD0000000C014058
:1007300010B50446FFF7BFFE7820FFF79DFE0020AE
:10074000FFF79AFE2046FFF797FEFFF7C2FE10BDA7
:1007500070B505460E46FFF7AEFE7820FFF78CFE1B
:100760004020FFF789FE002404E0285DFFF784FEA7
:10077000601CC4B2B442F8DBFFF7ABFE70BD0000F2
:1007800000B589B00121022000F060F801210420A9
:1007900000F06CF80121082000F068F818208DF8AE
:1007A0002300C020ADF8200003208DF8220008A906
:1007B0002248FFF7CCFC0320ADF8200008A9204810
:1007C000FFF7C5FC1F4800F0B3F90020ADF81A0090
:1007D000ADF8160044F61F60ADF818004720ADF8DC
:1007E000140000208DF81C0005A9164800F0DCFA62
:1007F00001A800F0CFFA6020ADF804000020ADF8A9
:100800000C000120ADF806000020ADF80A0001A997
:100810000C4800F0DFF901A90A4800F02DFA01A9FF
:10082000084800F08BF901A9064800F075FA01218B
:10083000044800F060F909B000BD00000008014064
:10084000000C0140000400407047000029B1064A36
:10085000D2690243044BDA6104E0034AD26982435D
:10086000014BDA61704700000010024029B1064ACE
:1008700092690243044B9A6104E0034A92698243FD
:10088000014B9A61704700000010024030B5002112
:100890000022002400232D4D6D6805F00C0121B1CC
:1008A000042905D0082923D105E0294D056022E05F
:1008B000274D05601FE0254D6D6805F47012234D2E
:1008C0006D6805F48034022505EB92421CB9214D78
:1008D000554305600BE01D4D6D6805F400351DB1F5
:1008E0001C4D5543056002E0194D5543056002E07B
:1008F000174D056000BF00BF144D6D6805F0F00195
:100900000909154D6B5C0568DD4045600F4D6D684C
:1009100005F4E061090A104D6B5C4568DD408560B7
:100920000A4D6D6805F46051C90A0B4D6B5C456852
:10093000DD40C560054D6D6805F44041890B074DEC
:100940006B5CC568B5FBF3F5056130BD0010024076
:1009500000127A0000093D00000000201000002075
:10096000704710B5FFF70CFF10BD10B500F002F88E
:1009700010BD00000CB500200190009033480068C5
:1009800040F480303149086000BF3048006800F40E
:10099000003000900198401C0190009818B901980F
:1009A000B0F5A06FF1D12948006800F4003010B113
:1009B0000120009001E0002000900098012843D120
:1009C0002348006840F0100021490860084600688C
:1009D00020F0030008600846006840F0020008604C
:1009E0001A48406819494860084640684860084607
:1009F000406840F4806048600846406820F47C10FD
:100A000048600846406840F4E810486008460068BE
:100A100040F08070086000BF0C48006800F0007073
:100A20000028F9D00948406820F0030007494860D1
:100A30000846406840F00200486000BF0348406834
:100A400000F00C000828F9D10CBD00000010024095
:100A5000002002407047000010B51348006840F0C5
:100A600001001149086008464068104908400E49D5
:100A70004860084600680E4908400B49086008466F
:100A8000006820F4802008600846406820F4FE00DA
:100A900048604FF41F008860FFF767FF4FF0006069
:100AA0000449086010BD0000001002400000FFF87B
:100AB000FFFFF6FE08ED00E010B50121880700F009
:100AC00026F801280ED102210748FFF7CBFB0128A9
:100AD00004D106480088401C044908800121880789
:100AE00000F006F810BD00000008014020000020C2
:100AF000CA430282704721B1028842F0010202809B
:100B000004E002884FF6FE731A400280704730B549
:100B10000246002000230024158A05EA0103958976
:100B200005EA010413B10CB1012000E0002030BD42
:100B300001894FF6F87211400181704770B50024A9
:100B400000220023058C4FF6FE7635400584028C8A
:100B50008388048B4FF68F752C40B51E2C400D8872
:100B60002C43751E2A400D892A434D882A43144D73
:100B7000A8420BD0134DA84208D0134DA84205D06F
:100B8000124DA84202D0124DA84213D14FF6F7756C
:100B90002A404D892A434FF6FB752A408D882A4307
:100BA0004FF6FF652B404FF6FF552B408D892B43A9
:100BB000CD892B4383800483CD888586028470BDD4
:100BC000002C01400034014000400140004401403D
:100BD0000048014070B5002400220023058C4FF628
:100BE000EF7635400584028C8388048B48F6FF75C8
:100BF0002C404FF6FF452C400D884FF6FF7606EA55
:100C000005252C434FF6DF752A400D8906EA0515A8
:100C10002A434D8806EA05152A43154DA84202D0FD
:100C2000144DA8421DD14FF67F752A404D894FF6CD
:100C3000FF7606EA05152A434FF6BF752A408D88D0
:100C400006EA05152A434FF6FF352B404FF2FF7594
:100C50002B408D8906EA85052B43CD8906EA85055B
:100C60002B4383800483CD880587028470BD0000F8
:100C7000002C01400034014070B500240022002304
:100C8000058C4FF6FF6635400584028C8388848B83
:100C90004FF68F752C404FF6FC752C400D882C4379
:100CA0004FF6FF552A400D894FF6FF7606EA0525D7
:100CB0002A434D8806EA05252A43154DA84202D04D
:100CC000144DA8421DD14FF2FF752A404D894FF6B1
:100CD000FF7606EA05252A434FF6FF352A408D8820
:100CE00006EA05252A434EF6FF752B404DF6FF75A3
:100CF0002B408D8906EA05152B43CD8906EA05159B
:100D00002B4383808483CD888587028470BD000057
:100D1000002C01400034014070B500220023002463
:100D2000058C4EF6FF7635400584038C8488828BD3
:100D300048F6FF752A404FF6FF452A400D884FF6CA
:100D4000FF7606EA05252A434DF6FF752B400D89EF
:100D500006EA05352B434D8806EA05352B430B4D36
:100D6000A84202D00A4DA84208D14BF6FF752C408C
:100D70008D894FF6FF7606EA85152C4384808283A1
:100D8000CD88A0F84050038470BD0000002C0140C5
:100D9000003401400021018041808180C1800181B7
:100DA00041818181C1817047002202881D4B984298
:100DB0000ED01D4B98420BD0B0F1804F08D01B4B8A
:100DC000984205D01A4B984202D01A4B984204D14F
:100DD0004FF68F731A404B881A43174B984207D02F
:100DE000164B984204D04FF6FF431A40CB881A4363
:100DF00002808B8883850B8803850A4B98420BD031
:100E0000094B984208D00E4B984205D00D4B9842A2
:100E100002D00D4B984201D10B7A038601238382C5
:100E200070470000002C01400034014000040040E5
:100E300000080040000C004000100040001400407A
:100E400000400140004401400048014010B540F21C
:100E50002551094800F073F901280CD1064800F02B
:100E600029FA0649087001200549087040F2255109
:100E7000014800F049F910BD00380140140000207D
:100E80001500002000B587B001218803FFF7EEFCB4
:100E900001210420FFF7EAFC18208DF81B004FF415
:100EA0000070ADF8180003208DF81A0006A91F483D
:100EB000FFF74DF948208DF81B004FF48060ADF826
:100EC000180006A91948FFF742F94FF4E1300290E3
:100ED0000020ADF814000C20ADF812000020ADF891
:100EE0001000ADF80E00ADF80C0002A9104800F09B
:100EF00075F9012240F225510D4800F04AF94FF4EE
:100F0000A060FFF717FA25208DF8040001208DF866
:100F100007008DF805008DF8060001A8FFF7D2F94B
:100F20000121034800F0FFF807B000BD00080140B0
:100F30000038014010B540F22551094800F0FFF893
:100F400001280CD1064800F0B5F9064908700120C7
:100F50000549087040F22551014800F0D5F810BD50
:100F600000440040160000201700002000B587B0A4
:100F700001210420FFF77AFC01214804FFF766FCF9
:100F800003208DF81A0018208DF81B000420ADF8FE
:100F9000180006A91F48FFF7DAF848208DF81B0053
:100FA0000820ADF8180006A91A48FFF7D0F84FF44A
:100FB000165002900020ADF814000C20ADF812007D
:100FC0000020ADF81000ADF80E00ADF80C0002A93D
:100FD000114800F003F9012240F225510E4800F0BB
:100FE000D8F84FF4A060FFF7A5F926208DF804008B
:100FF00001208DF807008DF8050002208DF806000D
:1010000001A8FFF75FF90121034800F08CF807B051
:1010100000BD0000000801400044004010B540F24F
:101020002551094800F08BF801280CD1064800F042
:1010300041F90649087001200549087040F2255120
:10104000014800F061F810BD004800401800002081
:101050001900002000B587B001218804FFF7F6FBD6
:1010600001210820FFF702FC03208DF81A00182048
:101070008DF81B004FF48060ADF8180006A92048D9
:10108000FFF765F848208DF81B004FF40060ADF8BD
:10109000180006A91A48FFF75AF84FF416500290A4
:1010A0000020ADF814000C20ADF812000020ADF8BF
:1010B0001000ADF80E00ADF80C0002A9114800F0C8
:1010C0008DF8012240F225510E4800F062F84FF4ED
:1010D000A060FFF72FF927208DF8040001208DF87C
:1010E00007008DF8050003208DF8060001A8FFF722
:1010F000E9F80121034800F016F807B000BD000030
:10110000000C01400048004010B50022002340F6CA
:101110006A14A14200D100BF0A1201249440A3B274
:10112000DC43048010BD21B1828942F400528281E7
:1011300004E082894DF6FF731A408281704770B5D2
:101140000246002400230025002040F66A16B14222
:1011500000D100BFC1F3421501F01F03012606FABA
:1011600003F3012D02D19689334006E0022D02D10E
:10117000168A334001E0968A33400C12012606FAA3
:1011800004F41688344013B10CB1012000E00020B3
:1011900070BDF0B50346002400260025002040F66F
:1011A0006A17B94200D100BF1846C1F3421401F0DA
:1011B0001F06012707FA06F5012C01D10C3004E0C7
:1011C000022C01D1103000E014301AB107682F430F
:1011D000076002E00768AF430760F0BD2DE9F04704
:1011E00086B005460E460024A24600BFA146002751
:1011F000B08900B100BF2F462C8A4CF6FF70044026
:10120000F08804432C82AC894EF6F3100440B08879
:1012100031890843718908430443AC81AC8A4FF695
:10122000FF400440B0890443AC8201A8FFF72EFBC5
:101230001F48874202D1DDF810A001E0DDF80CA0C4
:10124000A88900F4004040B10AEBCA0000EB0A1084
:1012500031684900B0FBF1F807E00AEBCA0000EB87
:101260000A1031688900B0FBF1F86420B8FBF0F097
:1012700004012009642101FB1089A88900F40040C1
:1012800040B1322000EBC900B0FBF1F000F00700E4
:10129000044308E0322000EB09106421B0FBF1F0B8
:1012A00000F00F0004432C8106B0BDE8F087000079
:1012B0000038014001468888C0F3080070470000EC
:1012C00008B501210420FFF7D1FA10208DF80300A2
:1012D0000120ADF8000003208DF8020069460A489D
:1012E000FEF735FF28208DF803000220ADF800003E
:1012F00003208DF8020069460348FEF728FF01210C
:101300000148FEF7B8FF08BD0008014000BFFEE736
:1013100002E008C8121F08C1002AFAD170477047BE
:10132000002001E001C1121F002AFBD1704700001C
:1013300008B501210420FFF799FA28208DF8030051
:1013400041F63000ADF8000003208DF80200694638
:101350000A48FEF7FCFE10210848FEF78CFF20210A
:101360000648FEF788FF4FF400610448FEF783FF4C
:101370004FF480510148FEF77EFF08BD0008014090
:1013800008B5FEF781FFFFF7AFF8FFF77BFDFFF72A
:10139000EDFDFFF75FFEFFF7E4FAFFF7C9FFFFF788
:1013A0008FFFC8200B4908604FF4FA700A490860A3
:1013B00000200A4908800A490880FEF7C5FF09484D
:1013C00040238022002100900846FFF7EDF800BF7F
:1013D000FEE7000030000020340000202C00002038
:1013E0002E0000201C1E000800000000000000006D
:1013F0000000000000000000000000F800000000F5
:10140000000000333000000000160E00160E000031
:10141000000000000000000040C07840C07840009C
:10142000043F04043F040400007088FC08300000FE
:10143000001820FF211E0000F008F000E018000056
:1014400000211C031E211E0000F00888700000000F
:101450001E21232419272110000000160E00000071
:101460000000000000000000000000E0180402007E
:10147000000000071820400000020418E0000000EF
:101480000040201807000000404080F080404000ED
:101490000202010F01020200000000F00000000043
:1014A0000101011F01010100000000000000000017
:1014B00000B070000000000000000000000000000C
:1014C0000001010101010101000000000000000015
:1014D00000303000000000000000000080601804B0
:1014E000006018060100000000E010080810E0008D
:1014F000000F102020100F00001010F80000000056
:101500000020203F2020000000700808088870009C
:10151000003028242221300000300888884830001C
:101520000018202020110E000000C02010F800003C
:1015300000070424243F240000F8088888080800D5
:101540000019212020110E0000E0108888180000EA
:10155000000F112020110E0000380808C8380800BC
:101560000000003F0000000000708808088870003C
:10157000001C222121221C0000E010080810E000BD
:101580000000312222110F00000000C0C000000046
:101590000000003030000000000000C0C00000006B
:1015A000000080B0700000000000804020100800A3
:1015B000000102040810200040404040404040002C
:1015C0000404040404040400000810204080000007
:1015D0000020100804020100007048080808F0000C
:1015E0000000003036010000C030C828E810E000DC
:1015F0000718272423140B000000C038E000000067
:10160000203C23020227382008F8888888700000D0
:10161000203F202020110E00C030080808083800A4
:10162000071820202010080008F808080810E0001B
:10163000203F202020100F0008F88888E8081000BC
:10164000203F20202320180008F88888E808100090
:10165000203F200003000000C030080808380000C8
:1016600007182020221E020008F808000008F808C9
:10167000203F210101213F20000808F80808000050
:101680000020203F2020000000000808F808080083
:10169000C08080807F00000008F888C028180800FB
:1016A000203F20012638200008F808000000000034
:1016B000203F20202020300008F8F800F8F808002B
:1016C000203F003F003F200008F830C00008F80825
:1016D000203F200007183F00E01008080810E00035
:1016E0000F10202020100F0008F808080808F0004C
:1016F000203F210101010000E01008080810E0006F
:101700000F18242438504F0008F888888888700003
:10171000203F2000030C30200070880808083800A3
:101720000038202121221C00180808F80808180099
:101730000000203F2000000008F808000008F8081A
:10174000001F202020201F000878880000C83808CB
:10175000000007380E010000F80800F80008F80043
:10176000033C0700073C03000818688080681808DD
:1017700020302C03032C30200838C800C83808005B
:101780000000203F2000000010080808C8380800AA
:101790002038262120201800000000FE020202004E
:1017A0000000007F40404000000C30C000000000FE
:1017B000000000010638C00000020202FE00000026
:1017C000004040407F000000002010080408102066
:1017D0000000000000000000000000000000000009
:1017E00080808080808080800002040800000000EB
:1017F00000000000000000000000808080800000E9
:101800000019242222223F2008F8008080000000D6
:10181000003F112020110E00000000808080000099
:10182000000E112020201100000000808088F800A8
:10183000000E112020103F200000808080800000DA
:10184000001F222222221300008080F0888888183E
:101850000020203F20200000000080808080800049
:10186000006B94949493600008F8008080800000DE
:10187000203F210000203F200080989800000000B9
:101880000020203F202000000000008098980000E9
:1018900000C08080807F000008F800008080800009
:1018A000203F24022D302000000808F8000000002E
:1018B0000020203F202000008080808080808000E9
:1018C000203F20003F20003F0080800080800000FB
:1018D00000203F2100203F20000080808080000009
:1018E000001F202020201F0080800080800000003A
:1018F00080FFA12020110E00000000808080800069
:10190000000E112020A0FF80808080008080800059
:1019100020203F2120000100000080808080800086
:101920000033242424241900008080E080800000FB
:101930000000001F20200000808000000080800048
:10194000001F202020103F208080800000808080A9
:1019500000010E3008060100808000800080808039
:101960000F300C030C300F0000808000808080005E
:101970000020312E0E312000808080000080808089
:1019800080818E7018060100008080808080800039
:101990000021302C2221300000000000807C020257
:1019A00000000000003F404000000000FF00000079
:1019B00000000000FF0000000002027C8000000028
:1019C0000040403F00000000008040408000008058
:1019D0000000000000010100000000000000000005
:1019E000002F000000000700070000147F147F1480
:1019F00000242A7F2A120023130864620036495506
:101A0000225000000007000000001C2241000000DE
:101A100041221C000014083E08140008083E080873
:101A2000000000A0600000080808080800006060CE
:101A30000000002010080402003E5149453E00000D
:101A4000427F4000004261514946002141454B31EF
:101A5000001814127F10002745454539003C4A49BB
:101A6000493000017109050300364949493600062D
:101A70004949291E00003636000000005636000095
:101A80000008142241000014141414140000412210
:101A90001408000201510906003E4955592E007CE8
:101AA0001211127C007F49494936003E41414122D2
:101AB000007F4141221C007F49494941007F0909BB
:101AC0000901003E4149497A007F0808087F00006B
:101AD000417F4100002040413F01007F0814224126
:101AE000007F40404040007F020C027F007F0408DE
:101AF000107F003E4141413E007F09090906003E3A
:101B00004151215E007F0919294600464949493162
:101B10000001017F0101003F4040403F001F204085
:101B2000201F003F4038403F006314081463000743
:101B30000870080700615149454300007F4141009A
:101B4000000204081020000041417F00000402014F
:101B50000204004040404040000001020400002018
:101B600054545478007F4844443800384444442056
:101B700000384444487F00385454541800087E0903
:101B800001020018A4A4A47C007F080404780000CB
:101B9000447D4000004080847D00007F1028440088
:101BA0000000417F4000007C04180478007C080499
:101BB000047800384444443800FC242424180018D5
:101BC000242418FC007C08040408004854545420C1
:101BD00000043F444020003C4040207C001C20404A
:101BE000201C003C4030403C004428102844001C8D
:101BF000A0A0A07C004464544C440000087F410035
:101C00000000007F00000000417F08000008040879
:101C10001008A3AC0000000000000000000000005D
:101C20000000000000000058380000000000000024
:101C30000000000000A1A300000000000000000060
:101C4000000000000000000000001824241800001C
:101C50000000000000000000C4E300008060F807FE
:101C60004020180F08C80808281800010000FF00CD
:101C7000100C0340807F0001061800BAC30010104A
:101C8000F01F10F000808282E2928A86800040225B
:101C900015081661000040807F0000000000CAC0E7
:101CA00000202020FE2020FF202020FF20202020B8
:101CB000000000007F40404744444447404040000B
:101CC00000BDE700000000FE929292FE929292FE0A
:101CD0000000000008080484621E010001FE0204E6
:101CE00004080800A3A100000000FE00000000009E
:101CF00000000000000000000000330000000000B1
:101D000000000000000000BFAA0080828282FE82E4
:101D100082828282FE8282828000008040300F00B8
:101D200000000000FF0000000000D0C400000080A0
:101D30000000E002041800000040800000100C03C6
:101D400000003F40404040407800010E00D6B50002
:101D5000008060F80704E4A4A4BFA4A4E404000085
:101D6000010000FF40407F4A4A4A4A4A7F40400003
:101D70003A00000000000000000000000000000029
:101D800000000000003636000000000000000000E7
:101D9000000000CCE500008060F807101010D0FFB4
:101DA000D01010100000010000FF1008040B08FF05
:101DB000080B04081000C1A600001010101010FF3E
:101DC0001010101010F000000000804020180601D4
:101DD00000204080403F000000000000FF010101A2
:101DE0003109090909897101010101FFFF80808022
:101DF0008080809681808080808080FFFF0181814B
:101E000081FD8991A1C1FD81818101FFFF808080D9
:101E1000809F888482819F80808080FF00000000F6
:101E200000000000000000000000000000000000B2
:101E300000000000000000000000000000000000A2
:101E40000000000000000000000000000000000092
:101E50000000000000000000000000000000000082
:101E60000000000000000000000000000000000072
:101E70000000000000000000000000000000000062
:101E80000000000000000000000000000000000052
:101E90000000000000000000000000000000000042
:101EA0000000000000000000000000000000000032
:101EB00000000000000000000000808080000000A2
:101EC0000000000000000000000000000000000012
:101ED0000000000000000000000000000000000002
:101EE00000000000000000000000000000000000F2
:101EF0000000000000000000000000008080800062
:101F000000000000000000000000000000000000D1
:101F100000000000000000000000000000000000C1
:101F200000000000000000000000000000000000B1
:101F30000000000000F0F8FEFFFFFFFFFFFFFFFEC4
:101F4000F8F00000000000000000000000000000A9
:101F50000000000000000000000000000000000081
:101F60000000000000000000000000000000000071
:101F700000000000000000F0F8FEFFFFFFFFFFFF81
:101F8000FFFEF8F00000000000000000000000006C
:101F90000000000000000000000000000000000041
:101FA0000000000000000000000000000000000031
:101FB0000000000000FFFFFFFFFFFFFFFFFFFFFF2C
:101FC000FFFF000000000000000000000000000013
:101FD0000000000000000000000000000000000001
:101FE00000000000000000000000000000000000F1
:101FF00000000000000000FFFFFFFFFFFFFFFFFFEA
:10200000FFFFFFFF000000000000000000000000D4
:1020100000000000000000000000000000000000C0
:1020200000000000000000000000000000000000B0
:102030000000000000FFFFFFFFFFFFFFFFFFFFFFAB
:10204000FFFF000000000000000000000000000092
:102050000000000000000000000000000000000080
:102060000000000000000000000000000000000070
:1020700000000000000000FFFFFFFFFFFFFFFFFF69
:10208000FFFFFFFF00000000000000000000000054
:102090000000000000000000000000000000000040
:1020A0000000000000000000000000000000000030
:1020B00000000000001F3FFFFFFFFFFFFFFFFFFFCB
:1020C0003F1F0000000000000000000000000000B2
:1020D0000000000000000000000000000000000000
:1020E00000000000000000000000000000000000F0
:1020F000000000000000001F3FFFFFFFFFFFFFFF89
:10210000FFFF3F1F00000000000000000000000073
:1021100000000000000000000000000000000000BF
:1021200000000000000000000000000000000000AF
:102130000000000000000000010103030301010092
:10214000000000000000000000000000000000008F
:10215000000000000000000000000000000000007F
:10216000000000000000000000000000000000006F
:102170000000000000000000000001010303030153
:10218000010000000000000000000000000000004E
:10219000000000000000000000000000000000003F
:1021A000000000000000000000000000000000002F
:1021B000000000000000000000000000000000001F
:1021C000000000000000000000000000000000000F
:1021D00000000000000000000000000000000000FF
:1021E00000000000000000000000000000000000EF
:1021F00000000000000000000000000000000000DF
:1022000000000000000000000000000000000000CE
:1022100000000000000000000000000000000000BE
:1022200000000000000000000000000000000000AE
:10223000000000000000000000000000000000009E
:10224000000000000000000000000000000000008E
:10225000000000000000000000000000000000007E
:10226000000000000000000000000000000000006E
:10227000000000000000000000000000000000005E
:10228000000000000000000000000000000000004E
:10229000000000000000000000000000000000003E
:1022A000000000000000000000000000000000002E
:1022B000000000000000000000000000000000001E
:1022C000000000000000000000000000000000000E
:1022D00000000000000000000000000000000000FE
:1022E00000000000000000000000000000000000EE
:1022F00000000000000000000000000000000000DE
:1023000000000000000000000000000000000000CD
:1023100000000000000000000000000000000000BD
:102320000000000000000000000000000000FFFFAF
:10233000FEFEFCFCF8F8F0F0E0E0C0C08080000099
:10234000000000000000000000000000000000008D
:10235000000000000000000000000000000000007D
:10236000000000000000000000000000000000006D
:102370000000000000000000000000008080C0C0DD
:10238000E0E0F0F0F8F8FCFCFEFEFF0000000000CA
:10239000000000000000000000000000000000003D
:1023A000000000000000000000000000000000002D
:1023B000010101030307070F0F1F1F1F3F3F7F7F0F
:1023C000FEFEFEFCFCF8F8F0F0E0E0C000000000CB
:1023D00000000000000000000000000000000000FD
:1023E0000000000000000000000000000000C0C06D
:1023F000E0E0F0F0F8F8FCFCFEFE7F7F3F3F3F1F7F
:102400001F0F0F0707030303010100000000000076
:1024100000000000000000000000000000000000BC
:1024200000000000000000000000000000000000AC
:102430000000808080C0C0E0E0F0F0F0F8F8FCFC24
:10244000FCFEFF7F7F3F3F1F1F0F0F0700000000B4
:10245000000000000000000000000000000000007C
:1024600000000000000000000000000000000F0F4E
:102470001F1F3F3F7F7FFFFFFCFCFCF8F8F0F0E000
:10248000E0E0C0C08080800000000000000000008C
:10249000000000000000000000000000000000003C
:1024A0000000000000000000000000000000FEFE30
:1024B000FF7F7F7F3F3F1F1F0F0F070703030101B0
:1024C000010000000000000000000000000000000B
:1024D00000000000000000000000000000000000FC
:1024E00000000000000000000000000000000000EC
:1024F0000000000000000000010103030307070FB4
:102500000F1F1F3F3F7F7FFFFFFEFE000000000008
:1025100000000000000000000000000000000000BB
:1025200000000000000000000000000000000100AA
:10253000000000000000000000000000000000009B
:10254000000000000000000000000000000000008B
:10255000000000000000000000000000000000007B
:10256000000000000000000000000000000000006B
:10257000000000000000000000000000000000005B
:10258000000000000000000000000100000000004A
:10259000000000000000000000000000000000003B
:1025A000000000000000000000000000000000002B
:1025B000000000000000000000000000000000001B
:1025C000000000000000000000000000000000000B
:1025D00000000000000000000000000000000000FB
:1025E00000000000000000000000000000000000EB
:1025F00000000000000000000000000000000000DB
:1026000000000000000000000000000000000000CA
:1026100000000000000000000000000000000000BA
:1026200000000000000000000000000000000000AA
:10263000000000000000000000000000000000009A
:10264000000000000000000000000000000000008A
:10265000000000000000000000000000000000007A
:10266000000000000000000000000000000000006A
:10267000000000000000000000000000000000005A
:10268000000000000000000000000000000000004A
:10269000000000000000000000000000000000003A
:1026A0000000000000000000000000008080C0C0AA
:1026B000C0800000000000000000000000000000DA
:1026C000000000000000000000000000000000000A
:1026D00000000000000000000000000000000000FA
:1026E0000000000000000000000000008080C0C06A
:1026F000C08000000000000000000000000000009A
:1027000000000000000000000000000000000000C9
:1027100000000000000000000000000000000000B9
:10272000000000000000000000E0FFFFFFFFFFFFCF
:10273000FFFFFE000000000000000000000000009D
:102740000000000000000000000000000000000089
:102750000000000000000000000000000000000079
:10276000000000000000000000E0FFFFFFFFFFFF8F
:10277000FFFFFE000000000000000000000000005D
:102780000000000000000000000000000000000049
:102790000000000000000000000000000000000039
:1027A0000000000000000000FFFFFFFFFFFFFFFF31
:1027B000FFFFFF000000000000000000000000001C
:1027C0000000000000000000000000000000000009
:1027D00000000000000000000000000000000000F9
:1027E0000000000000000000FFFFFFFFFFFFFFFFF1
:1027F000FFFFFF00000000000000000000000000DC
:1028000000000000000000000000000000000000C8
:1028100000000000000000000000000000000000B8
:102820000000000000000000FFFFFFFFFFFFFFFFB0
:10283000FFFFFF000000000000000000000000009B
:102840000000000000000000000000000000000088
:102850000000000000000000000000000000000078
:102860000000000000000000FFFFFFFFFFFFFFFF70
:10287000FFFFFF000000000000000000000000005B
:102880000000000000000000000000000000000048
:102890000000000000000000000000000000000038
:1028A00000000000000000000007FFFFFFFFFFFF27
:1028B000FFFF7F000000000000000000000000009B
:1028C0000000000000000000000000000000000008
:1028D00000000000000000000000000000000000F8
:1028E00000000000000000000007FFFFFFFFFFFFE7
:1028F000FFFF7F000000000000000000000000005B
:1029000000000000000000000000000000000000C7
:1029100000000000000000000000000000000000B7
:10292000000000000000000000000000010103039F
:102930000301000000000000000000000000000093
:102940000000000000000000000000000000000087
:102950000000000000000000000000000000000077
:10296000000000000000000000000000010103035F
:102970000301000000000000000000000000000053
:102980000000000000000000000000000000000047
:102990000000000000000000000000000000000037
:1029A0000000000000000000000000000000000027
:1029B0000000000000000000000000000000000017
:1029C0000000000000000000000000000000000007
:1029D00000000000000000000000000000000000F7
:1029E00000000000000000000000000000000000E7
:1029F00000000000000000000000000000000000D7
:102A000000000000000000000000000000000000C6
:102A100000000000000000000000000000000000B6
:102A200000000000000000000000000000000000A6
:102A30000000000000000000000000000000000096
:102A40000000000000000000000000000000000086
:102A50000000000000000000000000000000000076
:102A60000000000000000000000000000000000066
:102A70000000000000000000000000000000000056
:102A80000000000000000000000000000000000046
:102A90000000000000000000000000000000000036
:102AA0000000000000000000000000000000000026
:102AB0000000000000000000000000000000000016
:102AC00000000000000080C0C0C080800000000046
:102AD00000000000000000000000000000000000F6
:102AE00000000000000000000000000000000000E6
:102AF00000000000000000000000000000000000D6
:102B000000000000000080C0C0C080800000000005
:102B100000000000000000000000000000000000B5
:102B200000000000000000000000000000000000A5
:102B30000000000000000000000000000000000095
:102B40000000000000FEFFFFFFFFFFFFFFFFE000AF
:102B50000000000000000000000000000000000075
:102B60000000000000000000000000000000000065
:102B70000000000000000000000000000000000055
:102B80000000000000FEFFFFFFFFFFFFFFFFE0006F
:102B90000000000000000000000000000000000035
:102BA0000000000000000000000000000000000025
:102BB0000000000000000000000000000000000015
:102BC0000000000000FFFFFFFFFFFFFFFFFFFFFF10
:102BD00000000000000000000000000000000000F5
:102BE00000000000000000000000000000000000E5
:102BF00000000000000000000000000000000000D5
:102C00000000000000FFFFFFFFFFFFFFFFFFFFFFCF
:102C100000000000000000000000000000000000B4
:102C200000000000000000000000000000000000A4
:102C30000000000000000000000000000000000094
:102C40000000000000FFFFFFFFFFFFFFFFFFFFFF8F
:102C50000000000000000000000000000000000074
:102C60000000000000000000000000000000000064
:102C70000000000000000000000000000000000054
:102C80000000000000FFFFFFFFFFFFFFFFFFFFFF4F
:102C90000000000000000000000000000000000034
:102CA0000000000000000000000000000000000024
:102CB0000000000000000000000000000000000014
:102CC00000000000007FFFFFFFFFFFFFFFFF070086
:102CD00000000000000000000000000000000000F4
:102CE00000000000000000000000000000000000E4
:102CF00000000000000000000000000000000000D4
:102D000000000000007FFFFFFFFFFFFFFFFF070045
:102D100000000000000000000000000000000000B3
:102D200000000000000000000000000000000000A3
:102D30000000000000000000000000000000000093
:102D40000000000000000103030301010000000077
:102D50000000000000000000000000000000000073
:102D60000000000000000000000000000000000063
:102D70000000000000000000000000000000000053
:102D80000000000000000103030301010000000037
:102D90000000000000000000000000000000000033
:102DA0000000000000000000000000000000000023
:102DB0000000000000000000000000000000000013
:102DC0000000000000000000000000000000000003
:102DD00000000000000000000000000000000000F3
:102DE00000000000000000000000000000000000E3
:102DF00000000000000000000000000000000000D3
:102E000000000000000000000000000000000000C2
:102E100000000000000000000000000000000000B2
:102E200000000000000000000000000000000000A2
:102E30000000000000000000000000000000000092
:102E40000000000000000000000000000000000082
:102E50000000000000000000000000000000000072
:102E60000000000000000000000000000000000062
:102E70000000000000000000000000000000000052
:102E80000000000000000000000000000000000042
:102E90000000000000000000000000000000000032
:102EA0000000000000000000000000000000000022
:102EB0000000000000000000000000000000000012
:102EC0000000000000000000000000000000000002
:102ED00000000000000000000000000000000000F2
:102EE00000000000000000000000000000000000E2
:102EF00000000000000000000000000000000000D2
:102F000000000000000000000000000000000000C1
:102F100000000000000000000000000000000000B1
:102F2000000000000000000080E0F0F03000000031
:102F3000000000C080F0F0F080C000000000000041
:102F40001C1C1C1C1C1C1C1C1C1C1C1C1C1C1C1CC1
:102F50001C1C1CC0E0C0800000000000000000003D
:102F60000080C0E0C01C1C1C1C1C1C1C1C1C1C1C4D
:102F70001C1C1C1C1C1C1C1C000000000000C08031
:102F8000F0F0F080C000000000000030F0F0E080C1
:102F90000000000000000000000000000000000031
:102FA00000000000000000F8FFFF0F00000000001C
:102FB000000000113F3F0F3F3F11010000000000E3
:102FC0000000000000000000000000000000000001
:102FD0000000000103070F0F1E1E3C3C3C3C1E1E60
:102FE0000F0F0703010000000000000000000000B8
:102FF0000000000000000000000000000001113F80
:103000003F0F3F3F1100000000000000000FFFFFD6
:10301000F8000000000000000000000000000000B8
:10302000000000000000001FFFFFF0000000000093
:103030000000000000000000000000000000000090
:103040000000000000000000000000000000000080
:103050000000000000000000000000000000000070
:103060000000000000000000000000000000000060
:103070000000000000000000000000000000000050
:1030800000000000000000000000000000F0FFFF52
:103090001F00000000000000000000000000000011
:1030A000000000000000000001070F0F0C000000EE
:1030B0000000000000000000000000000000000010
:1030C0000000000000000000000000000000000000
:1030D00000000000000000000000000000000000F0
:1030E00000000000000000000000000000000000E0
:1030F00000000000000000000000000000000000D0
:1031000000000000000000000000000C0F0F07018D
:1031100000000000000000000000000000000000AF
:10312000000000000000000000000000000000009F
:10313000000000000000000000000000000000008F
:10314000000000000000000000000000000000007F
:1034B0003E3E3C383838383838383838383838387C
:1034C000383838383838383838383838383C3C3C70
:1034D0000000000000000000003C3C3C3838383858
:1034E000383838383838383838383838383838385C
:1034F000383838383838383C3E3E0000000000008C
:1035000000000000000000000000000000000000BB
:1035100000000000000000000000000000000000AB
:10352000000000000000000000000000000000009B
:10353000000000000000000000000000000000008B
:10373000000000000000000000000000008080C0C9
:10374000C0808000000080C0C0C0808000000000F9
:103750000000000000000000000000000000000069
:103760000000000000000000000000008080C0C0D9
:10377000808000000080C0C0C08080000000000089
:103780000000000000000000000000000000000039
:103790000000000000000000000000000000000029
:1037A000000000000000000000E0F0F8FCFEFEFE5B
:1037B000FEFEFEFCF8F0E0000000003CFFFF83018D
:1037C000010303070F0703030101C3FFFF7C000090
:1037D00000000000000000000000000000000000E9
:1037E000000000000000000000007CFFFF830101DA
:1037F0000303070F0703030101C3FFFF3C000000A1
:1038000000E0F0F8FCFEFEFEFEFEFEFCF8F0E0003C
:1038100000000000000000000000000000000000A8
:10382000000000000000000000070F1F3F7F7F7FA7
:103830007F7F7F3F1F0F0700000000000103070F7D
:103840001C3870E0E0E070381C0F07030000000037
:10385000000F3F7FF0E0C08080000000000000808B
:1038600080C0E0F07F3F0F000000000103070F1C45
:103870003870E0E0E070381C0F0703000000000023
:1038800000070F1F3F7F7F7F7F7F7F3F1F0F070056
:103890000000000000000000000000000000000028
:1038A0000000000000000000000000000000000018
:1038B0000000000000000000000000000000000008
:1038C00000000000000000000000000000000000F8
:1038D00000000000000103030307070707070703B1
:1038E00003030100000000000000000000000000D1
:1038F00000000000000000000000000000000000C8
:1039000000000000000000000000000000000000B7
:1039100000000000000000000000000000000000A7
:103920000000000000000000000000000000000097
:103BA0000000000000000000000000000080808095
:103BB0008080000000000000000000008080800085
:103BC00000000000000000000000000000000000F5
:103BD00000000000000000000000000000000000E5
:103BE00000000000000000000000000000000000D5
:103BF0000000000000000000000000000000008045
:103C000080808080000000000000000000008080B4
:103C10008000000000000000000000000000000024
:103C20000000000000000000183C3E3F1F0F070787
:103C300007070F1F1F1E3C3C3C3C3E3F1F0F070366
:103C400000000000000000000000FCFCFC8C8C8CDC
:103C50008C8C8C8C8C8C8C8C8C8C8C8C8C8C8C8CA4
:103C60008C8C8C8C8C8C8C8C8C8C0C0C0CFCFC00C0
:103C700000000000000000000000183C3E3F1F0F45
:103C8000070707070F1F1F1E3C3C3C3C3E3F1F0F12
:103C9000070300000000000000000000000000001A
:103CA0000000000000000000000000000000000014
:103CB0000000000000000000000000000000000004
:103CC00000000000000000000000010101010101EE
:103CD00001010101010101010101010101010101D4
:103CE000010101010101017F7F7F7070707F7F0002
:103CF00000000000000000000000000000000000C4
:103D000000000000000000000000000000000000B3
:103D100000000000000000000000000000000000A3
:103D20000000000000000000000000000000000093
:103D30000000000000000000000000000000000083
:103D40000000000000000000000000000000000073
:103D50000000000000000000000000000000000063
:103D60000000000000000000000000000000000053
:103D70000000000000000000000000000000000043
:103D80000000000000000000000000000000000033
:103D90000000000000000000000000000000000023
:103DA0000000000000000000000000000000000013
:103DB0000000000000000000000000000000000003
:103DC00000000000000000000000000000000000F3
:103DD00000000000000000000000000000000000E3
:103DE00000000000000000000000000000000000D3
:103DF00000000000000000000000000000000000C3
:103E000000000000000000000000000000000000B2
:103E100000000000000000000000000000000000A2
:103E20000000000000000000000000000000000092
:103E30000000000000000000000000000000000082
:103E40000000000000000000000000000000000072
:103E50000000000000000000000000000000000062
:103E60000000000000000000000000000000000052
:103E70000000000000000000000000000000000042
:103E80000000000000000000000000000000000032
:103E90000000000000000000000000000000000022
:103EA00000000080C0C0C080800000000000000052
:103EB0000000000000000000000000000000000002
:103EC00000000000000000000000000000000000F2
:103ED00000000000000000000000000000000000E2
:103EE00000000000000000000000000000000000D2
:103EF00000000000000000000000000000000000C2
:103F000000000000000000000000000000008080B1
:103F100080C0C0C0C08000000000000000000000A1
:103F2000000000010303030707070F0F1E1E1C3CC0
:103F30003C787878F0F0E0E0E0C0C080808000005D
:103F40000000000000000000000000000000000071
:103F50000000000000000000000000000000000061
:103F60000000000000000000000000000000000051
:103F700000000000000000000000008080C0C0C001
:103F8000E0E0F0F07078383C3C1E1E0E0F0F070783
:103F90000303030303010000000000000000000011
:103FA0000000000000000000000000000000000011
:103FB0000000808080C0C0C1C1C3E3E3E7E7FF7FAA
:103FC0007F7E7E7C3C3C180000000000000000006A
:103FD00000000000000000000000000000000000E1
:103FE00000000000000000000000000000000000D1
:103FF000000000000000000E0E1F1F1F3F3F3F3952
:10400000797970F0F0E0E0E0C0C0C0C0808080004E
:1040100000000000000000000000000000000000A0
:1040200000000000000000081C1C1C1E1E0E0F0FCC
:104030000F0707070303030301010101000000004C
:104040000000000000000000000000000000000070
:1040500000808080808080808080808080808080E0
:1040600080808080808080808080808080000000D0
:104070000000000000000000000000000000000040
:104080000000000000000101010303030387070F84
:104090000F0F0E0E040000000000000000000000E2
:1040A0000000000080700C0000E0FE06000000E050
:1040B0007E0F000000C0700C000000000000000037
:1040C00000000000000000000000000000000000F0
:1040D000000103030FFFFB83030303030303030335
:1040E00003030303030303FFFF1F03010100000099
:1040F00000000000000000000000000000000000C0
:104100004038060000E07F03000080E03E0300002E
:1041100000E07C040000000000000000000000003F
:104120000000000000000000000100000000070384
:10413000000000000201000000000000000000007C
:10414000000000000000000000000000000000006F
:1041500000000000000003070E0C0C0C0C0C0C0CF3
:104160000C0C0C0C0C0E0F070300000000000000EC
:10417000000000000000000000000000000000003F
:104180000000000000010000000007030000000024
:10419000030100000000000000000000000000001B
:1041A000000000000000000000000000000000000F
:1041B00000000000000000000000000000000000FF
:1041C00000000000000000000000000000000000EF
:1041D00000000000000000000000000000000000DF
:1041E00000000000000000000000000000000000CF
:1041F00000000000000000000000000000000000BF
:1042000000000000000000000000000000000000AE
:10421000000000000000000000000000000000009E
:10422000000000000000000000000000000000008E
:10423000000000000000000000000000000000007E
:10424000000000000000000000000000000000006E
:10425000000000000000000000000000000000005E
:10426000000000000000000000000000000000004E
:10427000000000000000000000000000000000003E
:10428000000000000000000000000000000000002E
:10429000000000000000000000000000000000001E
:1042A000000000000000000000000000000000000E
:1042B00000000000000000000000000000000000FE
:1042C00000000000000000000000000000000000EE
:1042D00000000000000000000000000000000000DE
:1042E00000000000000000000000000000000000CE
:1042F000000000000000000000000000008080803E
:1043000080C0C0C0C0C0C08080800000000000002D
:10431000000000000000000000000000000000009D
:10432000000207070F0F0E1E1E3C3C387878F0F095
:10433000F0E0E0C0C0C0808000000000000000008D
:10434000000000000000000000000000000000006D
:10435000000000000000000000000000000000005D
:1043600000000000000000000000000000000080CD
:10437000C0C0E0F0F0783C3C1E0E0F0F07070303AF
:104380000383C3E3F3F3FFFFFFFFFFFFFFFEFEFC2A
:10439000F8F0F0E0C00000000000000000000000A5
:1043A000000000000000000000000000000000000D
:1043B0000001010103838787C7CFCFDEFEFCFCFC31
:1043C000FCF87870200000000000000000000000F1
:1043D00000000000000000000000000000000000DD
:1043E00000000000000000000000000000000001CC
:1043F0000303010000000000000000000000006056
:10440000FEFFFFFFFFFFFFFFFFFFFFFFFFFFFFFFBD
:10441000FFFFFFFFFFFFFC000000000000000000A6
:10442000000000000030787878383C1C1C1E1E0EFE
:104430000E0F0F0707070703030303010101000025
:10444000000000000000000000000000000000006C
:104450000000000070F0F0F070707070707070709C
:1044600070707070F0F0F0000000000000000000BC
:10447000000000000000000000000000000000003C
:10448000070F3F7F7FFFFFFFFFFFFFFFFFFFFFFFE4
:10449000FFFF7F3F1F070100000000000000000039
:1044A000000000000000000000000000000000000C
:1044B00000000000000000000000000000000000FC
:1044C00000000000000000000000000000000000EC
:1044D0000000000000077FFFF880000000000000DF
:1044E00000000080FFFF3F0000000000000000000F
:1044F00000000000000000000000000000000000BC
:1045000000000000000000010101010101010101A2
:10451000000000000000000000000000000000009B
:10452000000000000000000000000000000000008B
:10453000000000000000000000000000000000007B
:10454000000000000000000000000000000000006B
:1045500000000000000000071F3F383838303030BE
:104560003838381F1F0F0000000000000000000056
:10457000000000000000000000000000000000003B
:10458000000000000000000000000000000000002B
:10459000000000000000000000000000000000001B
:1045A000000000000000000000000000000000000B
:1045B00000000000000000000000000000000000FB
:1045C00000000000000000000000000000000000EB
:1045D00000000000000000000000000000000000DB
:1045E00000000000000000000000000000000000CB
:1045F00000000000000000000000000000000000BB
:1046000000000000000000000000000000000000AA
:10461000000000000000000000000000000000009A
:10462000000000000000000000000000000000008A
:10463000000000000000000000000000000000007A
:10464000000000000000000000000000000000006A
:10465000000000000000000000000000000000005A
:10466000000000000000000000000000000000004A
:10467000000000000000000000000000000000003A
:10468000000000000000000000000000000000002A
:10469000000000000000000000000000000000001A
:1046A000000000000000000000000000000000000A
:1046B00000000000000000000000000000000000FA
:1046C00000000000000000000000000000000000EA
:1046D00000000000000000000000000000000000DA
:1046E00000000000000000000000000000000000CA
:1046F00000000000000000000000000000000000BA
:1047000000000000000000000000000000000000A9
:104710000000000000000000000000000000000099
:10472000000060707078787878F8F8F8F8F8F8F8A1
:10473000F8FCFCFCFCFCFCFCFCFCFCFCFCFCDEDEF9
:10474000CEEEEEEEEEEEEEC0C08080800000000007
:104750000000000000000000000000000000000059
:104760000000000000000000000000000000000346
:10477000839BFBFFFFFFFFFFFFFFFFFFFFFFFFFF2D
:10478000FFFFFFFFFFFFFFFFFF7F7F7F7F3F3F3F79
:104790003F3E3E3E3E3E3E1E000000000000000048
:1047A00000303C3E3EFEFFFFFFFFFFFFFFFFFFFF2D
:1047B000FFFFFFFFFFFFFFFFFFFFFFEFEFEFE7E769
:1047C000E7E7E7E3E3E3E3E3614101010000000021
:1047D00000000000000000000000000000000000D9
:1047E00000000000000000000000000000000000C9
:1047F000030F1F1F1F1F1F1F1F1F1F1F1F3F3F3F95
:104800003F3F3F3F3F3F3F3F3F3F3F3F3F3F3F3FB8
:104810003F3F3E3E3E3C0C00000000000000000018
:104820000000000002070707070707070303030349
:10483000030303030303010101010101010100005E
:104840000000000000000000000000000000000068
:1048500000000000C0C0C0C0C0C0C0C0C0C0C0C058
:10486000C0C0C0C0C0C0C000000000000000000008
:104870000000000000000000000000000000000038
:104880000000000000000000000000000000000028
:104890000000000000000000000000000000000018
:1048A0000000000000000000000000000000000008
:1048B00000000000000000000000000000000000F8
:1048C00000000000000000000000000000000000E8
:1048D00000000000011FFFFFE101010101010101D2
:1048E00001010101FFFFFF000000000000000000C7
:1048F00000000000000000000000000000000000B8
:1049000000000000000000000000000000000000A7
:104910000000000000000000000000000000000097
:104920000000000000000000000000000000000087
:104930000000000000000000000000000000000077
:104940000000000000000000000000000000000067
:10495000000000000000011F7FFEE0E0E0C0C0C0DA
:10496000E0E0E07E7F3F000000000000000000006B
:104970000000000000000000000000000000000037
:104980000000000000000000000000000000000027
:104990000000000000000000000000000000000017
:1049A0000000000000000000000000000000000007
:1049B00000000000000000000000000000000000F7
:1049C00000000000000000000000000000000000E7
:1049D00000000000000000000000000000000000D7
:1049E00000000000000000000000000000000000C7
:1049F00000000000000000000000000000000000B7
:104A000000000000000000000000000000000000A6
:104A10000000000000000000000000000000000096
:104A20000000000000000000000000000000000086
:104A30000000000000000000000000000000000076
:104A40000000000000000000000000000000000066
:104A50000000000000000000000000000000000056
:104A60000000000000000000000000000000000046
:104A70000000000000000000000000000000000036
:104A80000000000000000000000000000000000026
:104A90000000000000000000000000000000000016
:104AA0000000000000000000000000000000000006
:104AB00000000000000000000000000000000000F6
:104AC00000000000000000000000000000000000E6
:104AD00000000000000000000000000000000000D6
:104AE00000000000000000000000000000000000C6
:104AF00000000000000000000000000000000000B6
:104B000000000000000000000000000000000000A5
:104B10000000000000000000000000000000000095
:104B20000000000000000000000000000000000085
:104B30000000000000000000000000000000000075
:104B400000C0F0F83C3C7CF8E08000000000000071
:104B50000000000000000000000000000000000055
:104B6000000000000000000000000000000080C005
:104B7000F07C3C3C7CF0E080000000000000000085
:104B80000000000000000000000000000000000025
:104B90000000000000000000000000000000000015
:104BA0000000000000000000006060606060606065
:104BB0006060606060606060606000000000000E27
:104BC0000F0701000000000103070F0C00000000A8
:104BD0008080000000000000000000808080000055
:104BE000000000000000008080000000000E0F07A1
:104BF000010000000001030F0E0C00000000006027
:104C000060606060606060606060606060606060A4
:104C10000000000000000000000000000000000094
:104C200000000000000000000060606060606060E4
:104C300060606060606060606060000000000000B4
:104C40000000000000000000000000000000000064
:104C5000073F78E0C0C0C0703C1E07030103071E79
:104C60003C70C0C0C0E0783F0700000000000000BA
:104C700000000000000000000000000000000060D4
:104C80006060606060606060606060606060606024
:104C90000000000000000000000000000000000014
:104CA0000000000000000000000000000000000004
:104CB00000000000000000000000000000000000F4
:104CC00000000000000000000000000000000000E4
:104CD00000000000000000000000000000000000D4
:104CE00000000000000000000000000000000000C4
:104CF00000000000000000000000000000000000B4
:104D000000000000000000000000000000000000A3
:104D10000000000000000000000000000000000093
:104D20000000000000000000000000000000000083
:104D30000000000000000000000000000000000073
:104D40000000000000000000000000000000000063
:104D50000000000000000000000000000000000053
:104D60000000000000000000000000000000000043
:104D70000000000000000000000000000000000033
:104D80000000000000000000000000000000000023
:104D90000000000000000000000000000000000013
:104DA0000000000000000000000000000000000003
:104DB00000000000000000000000000000000000F3
:104DC00000000000000000000000000000000000E3
:104DD00000000000000000000000000000000000D3
:104DE00000000000000000000000000000000000C3
:104DF00000000000000000000000000000000000B3
:104E000000000000000000000000000000000000A2
:104E10000000000000000000000000000000000092
:104E20000000000000000000000000000000000082
:104E3000000000000080C06020301008080C04044E
:104E4000060202020202020202020202020202023E
:104E50000202020202020202020202020101010136
:104E60000101010202020604040C08081810306057
:104E70004040C08000000000000000000000000072
:104E80000000000000000000000000000000000022
:104E90000000000000000000000000000000000012
:104EA0000000000000000000C070180C07010000A6
:104EB00000000000000000000000000000000000F2
:104EC00000000000000000000000000000000000E2
:104ED00000000000000000000000000000000000D2
:104EE00000000000000000000000000101020206B6
:104EF0000C1830E0800000000000000000000000FE
:104F000000000000000000000000000000000000A1
:104F10000000000000000000000000000000C07C55
:104F20000300000000000000000000C0C0C0E0E07E
:104F3000E0E0E0C0C0C0C0808000000000000000D1
:104F400000000000000000000000000000000080E1
:104F5000C0E0E0F0F0F0F8F8F8F8F8F8F8F8F8F851
:104F6000F0F0F0E0E0C08000000000000103061C4B
:104F700070C0000000000000000000000000000001
:104F80000000000000000000000000000000000021
:104F9000000000000000FF0000000000C0E070788A
:104FA0007EFFFFFFFFFFFFFFFF7F7F7F7FFFFFFF92
:104FB000FFFFFEFEFCF8F0E0E080000000000000D3
:104FC000000000E0F8FC3F1F1F3F7FFFFFFFFFFFD7
:104FD000FFFFFFFFFFFFFFFFFFFFFFFFFFFFFFFFE1
:104FE000FFFCF8E0000000000003FE0000000000ED
:104FF00000000000000000000000000000000000B1
:105000000000000000000000000000000000FF00A1
:105010000000183F3F3F3C1C0E0707030101000042
:1050200000000000000000010101010303030F1F45
:105030003F3F3E380000000000000E7F7F1E1C0C2A
:105040000C06060301010101010101010101010139
:10505000010303070F1F3F3F7F7F7F7F3F0000005B
:1050600000007FC000000000000000000000000001
:105070000000000000000000000000000000000030
:10508000000000000000FF00000000000078800029
:105090000000000000000000000000000000000010
:1050A0000000000000000000000000000000000000
:1050B00000000000000000000000000000000000F0
:1050C00000000000000000000000000000000000E0
:1050D000C060000000000000000000FF00000000B1
:1050E00000000000000000000000000000000000C0
:1050F0000000000000000000000000000000037E2F
:10510000C0000000000001061860C0800000000020
:10511000000000000000000000000000000000008F
:10512000000000000000000000000000000000007F
:10513000000000000000000000000000000000006F
:105140000000000080E0380E0300000000000000B6
:105150000000FF0000000000000000000000000050
:10516000000000000000000000000000000000003F
:105170000000000000000000031EE08000000000AE
:10518000000000030E1830206040C08000000000C6
:10519000000000000000000000000000000000000F
:1051A00000000000000000000000000000000000FF
:1051B00000000000000080C060380C030100000007
:1051C00000000000000000C0780F00000000000098
:1051D00000000000000000000000000000000000CF
:1051E00000000000000000000000000000000000BF
:1051F000000000030E183060C080000000000000B6
:105200000000000101030202060404040408080867
:1052100008080808080808080808080818101010E6
:105220001808080808080808080404040603010010
:1052300000000000000000000080C060301C06017B
:10524000000000000000000000000000000000005E
:10525000000000000000000000000000000000004E
:10526000000000000000000000000000000000003E
:1052700000010101030202020404040408080808F2
:1052800008080808181010101010103020202020D6
:10529000202020202020202020202020202020200E
:1052A00020202020202030101018080804040602B6
:1052B00003010000000000000000000000000000EA
:1052C000000000000000000000000000EC52000898
:1052D00000000020440000001013000830530008B4
:1052E0004400002004080000201300080000000013
:1052F0000102030401020304060708090204060868
:10530000000000000000000000000000000000009D
:105310000030303030006400000000000000000069
:10532000000000000000000000000000000000007D
:04000005080000ED02
:00000001FF
